:0B007700C374F49582FF74019583FEB2
:0B008200EF1FAC0670011E4C70F62250
:10000300900000C3E58294F5E5839401502B7A00B8
:100013007B05EB1BAE0270011A4E6010D2A5AF82B6
:10002300AE83120082C2A512007780E67405258292
:10003300F582E43583F58380CAE4F583F582C3E56D
:100043008294F5E583940150B77A007B05EB1BAEF0
:100053000270011A4E6010D2A5120077C2A5AF82BA
:10006300AE8312008280E674052582F582E435832F
:04007300F58380CAC7
:0300000002008D6E
:0C008D00787FE4F6D8FD758107020003BF
:00000001FF
