:10023C00008060F8074020180F08C808082818002C
:10024C00010000FF00100C0340807F000106180025
:10025C00FFFFFFFFFFFFFFFFFEFDFBF7EFDFBF7FA1
:10026C00FEFDFBF7EFDFBF7FFFFFFFFFFFFFFFFF91
:04029A007F057E005E
:0B029E00EF1FAC0670011E4C70F62232
:10027C00D3EF9400EE940040147D6E7C00ED1D7065
:0D028C00011CED4C70F7EF1F70E61E80E3C3
:010299002242
:0501BD002AF8E6F54BF5
:1001C200E4FED2B6D2B5EFC4131313540124FF9246
:1001D200B4EF25E0FFC2B60000D2B60EBE08E7E4D7
:1001E200FEEDC4131313540124FF92B4ED25E0FD78
:1001F200C2B60000D2B60EBE08E7E4FEEBC413138B
:1002020013540124FF92B4EB25E0FBC2B60000D2E6
:10021200B60EBE08E7E4FEE54BC4131313540124E3
:10022200FF92B4E54B25E0F54BC2B60000D2B60E04
:09023200BE08E4C2B50000D2B51B
:01023B0022A0
:1000F90078087C007D007BFF7A02793C7E007F10C6
:100109001200D378187C007D007BFF7A02794C7E3F
:10011900007F101200D378287C007D007BFF7A02D3
:10012900795C7E007F101200D378387C007D007BDB
:10013900FF7A02796C7E007F101200D3E4FA7428EA
:100149002AF8E6FF74382AF8E6FD74182AF8E6FB5F
:1001590074081201BD12029A0ABA10E27F307E7544
:1001690012029EE4FA74282AF8E6FF74382AF8E69F
:10017900FD74192AF8E6FB74091201BD12029A0AE4
:10018900BA0FE27F307E7512029EE4FA74282AF8CB
:10019900E6FF74382AF8E6FD741A2AF8E6FB740AB1
:1001A9001201BD12029A0ABA0EE27F307E7512025E
:0401B9009E0201455C
:0302B5000200F94B
:030000000202A950
:0C02A900787FE4F6D8FD75814B0202B5A9
:10000300E709F608DFFA8046E709F208DFFA803EDF
:1000130088828C83E709F0A3DFFA8032E309F608CC
:10002300DFFA8078E309F208DFFA807088828C8334
:10003300E309F0A3DFFA806489828A83E0A3F608E8
:10004300DFFA805889828A83E0A3F208DFFA804CC2
:1000530080D280FA80C680D4806980F28033801099
:1000630080A680EA809A80A880DA80E280CA803302
:1000730089828A83ECFAE493A3C8C582C8CCC5837A
:10008300CCF0A3C8C582C8CCC583CCDFE9DEE7804A
:100093000D89828A83E493A3F608DFF9ECFAA9F0C9
:1000A300EDFB2289828A83ECFAE0A3C8C582C8CC1F
:1000B300C583CCF0A3C8C582C8CCC583CCDFEADE38
:1000C300E880DB89828A83E493A3F208DFF980CC9A
:1000D30088F0EF60010E4E60C388F0ED2402B40493
:1000E3000050B9F582EB2402B4040050AF2323453A
:0600F3008223900053730C
:00000001FF
