:1001030011093F065B4F666D7D077F6F777C395E14
:06011300797100010800F3
:0B012A00EF1FAC0670011E4C70F622A7
:10008F0075800FE580640F60657FE87E0312012A9B
:10009F00E580640F605B75800FAF80EF24F5601013
:1000AF0024FE601114601324077012750801800D6F
:1000BF00750802800875080380037508047580F0C1
:1000CF00AF80EF2450601124E0601124F060112400
:1000DF00707013850808800E7404800674088002FF
:1000EF00740C2508F508E58064F0600580F8E4F5E8
:0300FF0008AF083F
:0101020022DA
:10011A00E4FF12008FEF60FA2408F8E6F59080F207
:03000000020003F8
:0C000300787FE4F6D8FD75811902004AF0
:10000F0002011AE493A3F8E493A34003F68001F2EC
:10001F0008DFF48029E493A3F85407240CC8C333F2
:10002F00C4540F4420C8834004F456800146F6DFC1
:10003F00E4800B0102040810204080900103E47E4D
:10004F00019360BCA3FF543F30E509541FFEE493B6
:10005F00A360010ECF54C025E060A840B8E493A37D
:10006F00FAE493A3F8E493A3C8C582C8CAC583CAA8
:10007F00F0A3C8C582C8CAC583CADFE9DEE780BE60
:0101190000E5
:00000001FF
