:1004500011123F065B4F666D7D077F6F777C395EBB
:0F046000797100040A00000000040E0000000083
:0B04A700EF1FAC0670011E4C70F62227
:04001E008E238F247A
:10002200E4FCFD7B807A967998F812040C74122F06
:10003200F8E6F525AE23AF24E4FCFD7B807A9679C1
:1000420098F812040CAC00AD01AE02AF037B407A0B
:1000520042790F780012040C74122FF8E6F526AEDE
:1000620023AF24E4FCFD7B407A42790FF812040CA2
:10007200AC00AD01AE02AF037BA07A8679017800B5
:1000820012040C74122FF8E6F527AE23AF24E4FC19
:10009200FD7BA07A867901F812040CAC00AD01AEAA
:1000A20002AF03E47B107A27F9F812040C74122FC2
:1000B200F8E6F528AE23AF247C277D101201927E4C
:1000C200037FE8CFCDCFCECCCE12019274122FF89F
:1000D200E6F529AE23AF247C037DE81201927E006F
:1000E2007F64CFCDCFCECCCE12019274122FF8E620
:1000F200F52AAE23AF247C007D641201927E007F3C
:100102000ACFCDCFCECCCE12019274122FF8E6F5E3
:100112002BAE23AF247C007D0A12019274122DF8BB
:10012200E6F52CE4FDEDB40800504D900134F828BA
:10013200287302014C02015002015802015C0201C3
:1001420064020168020170020174C2A28002D2A29A
:10015200C2A3C2A48022C2A28002D2A2D2A3C2A4FB
:100162008016C2A28002D2A2C2A3D2A4800AC2A2D4
:100172008002D2A2D2A3D2A474252DF8E6F5807F04
:0F018200647E001204A7E4F5800DED640870960A
:01019100224B
:10048E00758951E4F58DF58B758CFC758A18D2AB98
:09049E00D28ED2A9D28CD2AF2279
:03000B000202C628
:1002C600C0E0C0F0C083C082C0D075D000C000C0FE
:0D02D60001C002C003C004C005C006C0077F
:1002E300758CFC758A180509E5097002050864E830
:1002F3007004E5086403706AAF8BFCFDFEE50D2F07
:10030300F50DEE350CF50CED350BF50BEC350AF56B
:100313000AAF8DEFFEE4250DF50DE50C3EF50CED72
:10032300350BF50BEC350AF50AAF11AE10AD0FAC7A
:100333000EAB0DAA0CA90BF8C31201E7600C850DD7
:1003430011850C10850B0F850A0E750800750900C1
:10035300750D00750C00750B00750A00758D007521
:020363008B000D
:10036500D007D006D005D004D003D002D001D000EC
:0B037500D0D0D082D083D0F0D0E03296
:03001B000204706C
:10047000C0E0C0D0E4250DF50DE4350CF50CE50B1E
:0E0480003401F50BE4350AF50AD0D0D0E03295
:0C000E0012048EAE10AF1112001E80F71D
:0300000002038078
:0C038000787FE4F6D8FD75812C0203C7DD
:10019200BC000BBE0029EF8DF084FFADF022E4CC51
:1001A200F875F008EF2FFFEE33FEEC33FCEE9DEC1A
:1001B200984005FCEE9DFE0FD5F0E9E4CEFD22ED60
:1001C200F8F5F0EE8420D21CFEADF075F008EF2FAA
:1001D200FFED33FD4007985006D5F0F222C398FD9B
:0501E2000FD5F0EA2238
:10040C00C2D5E830E70FB2D5E4C39BFBE49AFAE41B
:10041C0099F9E498F8EC30E717B2D51204421202BD
:10042C0034E4C39BFBE49AFAE499F9E498F880036A
:10043C0012023430D50DE4C39FFFE49EFEE49DFD13
:04044C00E49CFC220E
:1001E700EB9FF5F0EA9E42F0E99D42F0E89C45F06E
:0101F70022E5
:10038C0002000EE493A3F8E493A34003F68001F279
:10039C0008DFF48029E493A3F85407240CC8C33372
:1003AC00C4540F4420C8834004F456800146F6DF41
:1003BC00E4800B0102040810204080900450E47E7D
:1003CC00019360BCA3FF543F30E509541FFEE49336
:1003DC00A360010ECF54C025E060A840B8E493A3FD
:1003EC00FAE493A3F8E493A3C8C582C8CAC583CA28
:1003FC00F0A3C8C582C8CAC583CADFE9DEE780BEE0
:01046F00008C
:1001F80075F008758200EF2FFFEE33FECD33CDCCBE
:1002080033CCC58233C5829BED9AEC99E582984040
:100218000CF582EE9BFEED9AFDEC99FC0FD5F0D61D
:10022800E4CEFBE4CDFAE4CCF9A88222B800C1B947
:100238000059BA002DEC8BF084CFCECDFCE5F0CB85
:10024800F97818EF2FFFEE33FEED33FDEC33FCEBBE
:1002580033FB10D703994004EB99FB0FD8E5E4F979
:10026800FA227818EF2FFFEE33FEED33FDEC33FC66
:10027800C933C910D7059BE99A4007EC9BFCE99A5A
:10028800F90FD8E0E4C9FAE4CCFB2275F010EF2F9F
:10029800FFEE33FEED33FDCC33CCC833C810D7079F
:1002A8009BEC9AE899400AED9BFDEC9AFCE899F8DA
:0E02B8000FD5F0DAE4CDFBE4CCFAE4C8F9226D
:00000001FF
