:10018300110CC0F9A4B0999282F880908883C6A11B
:0B019300868EFF02080000020A000038
:0B01BD00EF1FAC0670011E4C70F62214
:10008F00E4F508F50975A0FFE5A0F4606C7FE87E44
:10009F00031201BDE5A0F46060AFA0EF244160231F
:1000AF0024E0602724F0602B24F8602F24FC6033B9
:1000BF0024FE603714603C247F703E75080075097C
:1000CF00018036750800750902802E7508007509C4
:1000DF00038026750800750904801E7508007509D0
:1000EF00058016750800750906800E7508007509DC
:0D00FF00078006750800750908AE08AF09F6
:01010C0022D0
:0F019F00E4F58012008F740C2FF8E6F58080F4E1
:10010D0075A00FE5A0640F60687FE87E031201BD46
:10011D00E5A0640F605BAFA075A0F0AEA0EF24F575
:10012D00601324FE601714601C2407701E750A00EE
:10013D00750B018016750A00750B02800E750A008D
:10014D00750B038006750A00750B04AF06EE24507F
:10015D00600C24E0600C24F0600C24708013740497
:10016D00800674088002740C250BF50BE4350AF536
:05017D000AAE0AAF0B01
:01018200225A
:0F01AE007580FF12010D740C2FF8E6F58080F4B8
:0301C8000201AE83
:03000000020003F8
:0C000300787FE4F6D8FD75811C02004AED
:10000F000201C8E493A3F8E493A34003F68001F23E
:10001F0008DFF48029E493A3F85407240CC8C333F2
:10002F00C4540F4420C8834004F456800146F6DFC1
:10003F00E4800B0102040810204080900183E47ECD
:10004F00019360BCA3FF543F30E509541FFEE493B6
:10005F00A360010ECF54C025E060A840B8E493A37D
:10006F00FAE493A3F8E493A3C8C582C8CAC583CAA8
:10007F00F0A3C8C582C8CAC583CADFE9DEE780BE60
:01019E000060
:00000001FF
