:1009A400582B00582D00303132333435363738392E
:10095700012101013100042242C8000002320000D7
:040967000226000A5A
:0B000E00EF1FAC0670011E4C70F622C4
:10098000438901758CF2758A54A201928CD2A9D246
:02099000AF2294
:10099200438910758D3C758BB0A201928ED2ABD279
:0209A200AF2282
:10088800EF6003752101E5216401703F30900F305E
:10089800910C30920930930630940320952D7F886F
:1008A8007E1312000EE4F521209002FF222091030E
:1008B8007F01222092037F02222093037F032220BC
:1008C80094037F04222095187F05223090123091DE
:1008D8000F30920C3093093094063095037521013E
:0208E8007FFF90
:0108EA0022EB
:1008EB00AE07ED7005C374039FFEEE14600E14602B
:1008FB00111460172403701CD2A0801AC2A0D2A1BD
:10090B008016C2A0C2A1D2A2C2A322C2A0C2A1C2FF
:0C091B00A2D2A322C2A0C2A1C2A2C2A309
:0109270022AD
:080594008F0B8E0A8D098C0803
:10059C00120289AB07AA067C007D641204198E0C2A
:1005AC008F0D7C007D64AF03AE021204197E007FB8
:1005BC000ACFCDCFCECCCE1204198E0E8F0FAF0B2F
:1005CC00AE0AAD09AC081202897C007D0A1204192E
:1005DC008C108D11E4FFFE7DC87C42AB0BAA0AA9DE
:1005EC0009A808120116120289AB07AA067C007D25
:1005FC00641204197E007F0ACFCDCFCECCCE12046C
:10060C00198E128F13AE02AF037C007D0A120419EF
:10061C008C148D1578167C007D007BFF7A0979AAE5
:10062C007E007F0A1203DA7416250DF8E6F52B749A
:10063C0016250FF8E6F52C74162511F8E6F52D7530
:10064C002E2E74162513F8E6F52F74162515F8E6DC
:02065C00F53077
:01065E002279
:10065F00C2B212096CD2011209927F011208887579
:10066F0029008F2AE52AF47003E529F460ECE4FFF2
:10067F00FEFDFCAB25AA24A923A82212021C40DAF6
:10068F00E4FFFE7D487C43AB25AA24A923A82212B0
:10069F00021C600250C4E52A4529700BD2B275289E
:1006AF0001D2B0C2B180B3E52A64014529700AD2E4
:1006BF00B2F528C2B0D2B180A1E52A6402452970F3
:1006CF0007F526752701801CE52A64034529700765
:1006DF00F52675270A800DE52A64044529700DF566
:1006EF0026752764D201120980020669E52A64057E
:0C06FF0045296003020669C2B2020669C8
:03000B000204B23A
:1004B200C0E0C0F0C083C082C0D075D000C000C010
:1004C20001C002C003C004C005C006C007758CF29B
:1004D200758A54533103AF310531AD281208EBE56B
:1004E20028703A7F667E667D867C3FAB25AA24A96A
:1004F20023A822120025E4FBFA7948784312021C51
:10050200401BAF25AE24AD23AC227B667A6679868A
:10051200783F1200258F258E248D238C22E528B466
:10052200013A7F667E667D867CBFAB25AA24A9231D
:10053200A822120025E4FBFAF9F812021C6002500C
:100542001BAF25AE24AD23AC227B667A6679867812
:100552003F1200218F258E248D238C220533E53313
:1005620070020532B52710E532B5260BC201120919
:1005720080753200753300D007D006D005D004D084
:1005820003D002D001D000D0D0D082D083D0F0D01E
:02059200E03255
:03001B00020815C3
:10081500C0E0C0F0C083C082C0D075D000C000C0A9
:1008250001C002C003C004C005C006C007758D3CE9
:10083500758BB0E528B401097BFF7A0979A4E480BA
:100845000AE528700B7BFF7A0979A7FDFF12079748
:10085500AF25AE24AD23AC221205947B007A007936
:100865002B7D01E4FF120797D007D006D005D004F1
:10087500D003D002D001D000D0D0D082D083D0F028
:03088500D0E0328E
:10092800C2B58F807F017E00120939D2B57F017E62
:0109380000BE
:10093900D3EF9400EE940040147D6E7C00ED1D70A1
:0D094900011CED4C70F7EF1F70E61E80E3FF
:01095600227E
:08000300C2B4120928C2B522A3
:0809B400D2B4120928C2B522D9
:10096C007F381200037F0C1200037F061200037FF6
:04097C000102000371
:0509BC007F01020003B1
:020797008F08C9
:10079900E4F509EDD394015072E508940F506CED1E
:1007A900C3940150331204006061C374109508FFAB
:1007B900E509C39FE509500624802508800425081A
:1007C90024B0FF120003120400FF1209B4740129B6
:1007D900F9E43AFA050980CD120400602EC37410B9
:1007E9009508FFE509C39FE509500624C02508803F
:1007F9000425082470FF120003120400FF1209B433
:0B080900740129F9E43AFA050980CDDA
:0108140022C1
:10001E000202F5E86480F8E933E83360110460F019
:10002E00ED33EC337009E8FCE9FDEAFEEBFF220448
:10003E0060DED3EB9FEA9EE99DE8C2E78CF0C2F743
:10004E0095F0400CE8CCF8E9CDF9EACEFAEBCFFB0F
:10005E001202C085D0F05804700320D5B3E80470A6
:10006E00075002B2D50202FF92D5EC0460F7E4CC41
:10007E00C0E0C398F8603B94186008400DD0E0FBD8
:10008E000202D7E4FBFAC9FC8028E830E406E4C992
:10009E00FBE4CAFCE830E305E4C9CACBFCE854072C
:1000AE006010F8C3E913F9EA13FAEB13FBEC13FC37
:1000BE00D8F130F52FC3E49CFCEF9BFFEE9AFEEDDA
:1000CE0099FDD0E0FBEF4E4D4C701222DB03020285
:1000DE00FCEC2CFCEF33FFEE33FEED33FDED30E7A1
:1000EE00EB0202D7EF2BFFEE3AFEED39FDD0E0FB2F
:1000FE0050130BBB00030202FFED13FDEE13FEEFD8
:08010E0013FFEC13FC0202D701
:10011600EC4D6011E8497017ED33EC3304600DE4E3
:10012600FCFFFEFD22E933E8330470F80202F51203
:1001360002C058046009E4CC248150062850090204
:1001460002FF2840030202FCC0E0EB4A7044B9807B
:1001560006D0E0FB0202EBEF4E701CBD8008EBFF01
:10016600EAFEE9FD80EBE98DF0A4FEE5F00201FF71
:10017600E9CDF9EAFEEBFFEF89F0A4FCE5F0CE89C4
:10018600F0A42EFFE435F0CD89F0A42DFEE435F081
:100196008067EF4E7005BD80D780C3EF8BF0A4ACAF
:1001A600F0EE8BF0A42CFCE435F0F8EF8AF0A42CEA
:1001B600E5F038FCE433CB8DF0A42CFCE5F03BF8FD
:1001C600EE8AF0A42CFCE5F038F8E433CF89F0A4ED
:1001D6002CFCE5F038CF3400CE89F0A42FFFE5F0F3
:1001E6003EFEE433C98DF0A42EFEE5F039CD8AF04B
:1001F600A42FFFE5F03EFEE43DFD33D0E0FB5007C3
:100206000BBB000F0202FFEC2CFCEF33FFEE33FEBC
:06021600ED33FD0202D7EA
:10021C0074F8CC6480CCC86480C8F582046043C395
:10022C00EB9FF5F0EA9E42F0E99D42F0E89C45F028
:10023C0060305018E5825FFFE582F42B5582FB504D
:10024C00210ABA001D09B90019088016E5825BFB6A
:10025C00E582F42F5582FF50090EBE00050DBD003E
:10026C00010CC3EB9FF5F0EA9E42F0E99D42F0E8E9
:0D027C009C45F06007CC4820E701B3EC2260
:10028900EDD2E7CD33EC3392D524814006E4FFFE6D
:10029900FDFC22FCE4CFCECDCC24E0501174FF80CC
:1002A900EDC3CC13CCCD13CDCE13CECF13CF047069
:0702B900F030D5DE02044F16
:1002C000E9D2E7C933E833F892D5EDD2E7CD33EC84
:0702D00033FC5002B2D522FD
:1002D700EC30E7100FBF000C0EBE00080DBD000488
:1002E7000BEB6014A2D5EB13FCED92E7FD2274FF34
:1002F700FCFDFEFF22E480F8A2D574FF13FC7D808D
:03030700E480EFA0
:0300000002070BE9
:0C070B00787FE4F6D8FD758133020752B8
:10030A00E709F608DFFA8046E709F208DFFA803ED5
:10031A0088828C83E709F0A3DFFA8032E309F608C2
:10032A00DFFA8078E309F208DFFA807088828C832A
:10033A00E309F0A3DFFA806489828A83E0A3F608DE
:10034A00DFFA805889828A83E0A3F208DFFA804CB8
:10035A0080D280FA80C680D4806980F2803380108F
:10036A0080A680EA809A80A880DA80E280CA8033F8
:10037A0089828A83ECFAE493A3C8C582C8CCC58370
:10038A00CCF0A3C8C582C8CCC583CCDFE9DEE78040
:10039A000D89828A83E493A3F608DFF9ECFAA9F0BF
:1003AA00EDFB2289828A83ECFAE0A3C8C582C8CC15
:1003BA00C583CCF0A3C8C582C8CCC583CCDFEADE2E
:1003CA00E880DB89828A83E493A3F208DFF980CC90
:1003DA0088F0EF60010E4E60C388F0ED2402B40489
:1003EA000050B9F582EB2402B4040050AF23234530
:0603FA00822390035A73F8
:10040000BB010689828A83E0225002E722BBFE02FA
:09041000E32289828A83E493222D
:10041900C2D5EC30E709B2D5E4C39DFDE49CFCEEFE
:1004290030E715B2D5E4C39FFFE49EFE12045DC315
:10043900E49DFDE49CFC800312045D30D507C3E410
:060449009FFFE49EFE226D
:0E044F00C3E49FFFE49EFEE49DFDE49CFC22BE
:1007170002065FE493A3F8E493A34003F68001F293
:1007270008DFF48029E493A3F85407240CC8C333E3
:10073700C4540F4420C8834004F456800146F6DFB2
:10074700E4800B0102040810204080900957E47EE2
:10075700019360BCA3FF543F30E509541FFEE493A7
:10076700A360010ECF54C025E060A840B8E493A36E
:10077700FAE493A3F8E493A3C8C582C8CAC583CA99
:10078700F0A3C8C582C8CAC583CADFE9DEE780BE51
:01096B00008B
:10045D00BC000BBE0029EF8DF084FFADF022E4CC83
:10046D00F875F008EF2FFFEE33FEEC33FCEE9DEC4C
:10047D00984005FCEE9DFE0FD5F0E9E4CEFD22ED92
:10048D00F8F5F0EE8420D21CFEADF075F008EF2FDC
:10049D00FFED33FD4007985006D5F0F222C398FDCD
:0504AD000FD5F0EA226A
:00000001FF
