:100333003F065B4F666D7D077F6F777C395E797112
:010343007643
:1002AC00E4F51EE51E14600B14601024027012C2DB
:1002BC00A28002D2A2C2A3C2A48006C2A2D2A3C2AE
:1002CC00A4740F251EF8E6F5807F647E001203559A
:0C02DC00E4F580051EE51EC3940340C736
:0102E80022F3
:1001C00012036AD2B212026CE50BB40704E4FF809A
:1001D00019E50BB415047F018010E50BB444047FCE
:1001E000028007E50BB440077F0312026C8022E512
:1001F0000BB45A07E4FF1202268016E50BB4080779
:100200007F01120226800AE50BB4180A7F0212024F
:1002100026E4F50B80B2E50B641C70AC7F03120280
:0602200026E4F50B80A2AC
:0300030002000EEA
:10000E00C0E0C0F0C083C082C0D075D000C000C0B8
:0D001E0001C002C003C004C005C006C00739
:10002B007508007FBC7E0212035530B20302011922
:10003B00751903751AE820B21CD3E51A9400E5195B
:10004B00940040117F017E00120355E51A151A70BA
:10005B00E5151980E120B203020119751901751A12
:10006B00F430B21CD3E51A9400E519940040117FCB
:10007B00017E00120355E51A151A70E5151980E17A
:10008B00751800751700751900751A3C20B21CD332
:10009B00E51A9400E519940040117F017E001203CC
:1000AB0055E51A151A70E5151980E1751901751AC0
:1000BB00F430B225D3E51A9400E5199400401A7F69
:1000CB000A7E001203550508E51A151A7002151958
:1000DB00E508D3941E40DA803574092518F8C00062
:1000EB00E6C313D000F6E508C3940840097409254C
:1000FB0018F8E64480F67508000517E517C3940851
:0E010B0040840518E518C39404500302008ECA
:10011900D007D006D005D004D003D002D001D0003A
:0B012900D0D0D082D083D0F0D0E032E4
:07036A00D288D2A8D2AF2215
:07037100C28AD2AAD2AF221A
:10032100438901758CFE758A0CA201928CD2A9D2E7
:02033100AF22F9
:10034400438910E4F58DF58BA200928ED2ABD2AF27
:010354002286
:0B035500EF1FAC0670011E4C70F6227A
:09036000011B04011C04011D270E
:10026C00EF14601514601D1460252403702AE51B1F
:10027C00D394004023151B801FE51BC39409501811
:10028C00051B8014E51CD39400400D151C8009E55A
:10029C001CC394095002051C751D4FD20102032189
:03000B000202E905
:1002E900C0E0C0F0C0D0758CFF758A06051DE51DFC
:1002F90075F0508485F01DE51DD3951B5004D2A0DF
:100309008002C2A0E51DD3951C5004D2A18002C26F
:08031900A1D0D0D0F0D0E032F9
:10022600EF14601014601314601A24037020D2B403
:10023600C2B58014C2B4D2B58004D2B4C2B5D2B6A7
:10024600C2B78012C2B4D2B5C2B6D2B78008C2B4A1
:10025600C2B5C2B6C2B77FA07E86120355C2B4C26B
:06026600B5C2B6C2B722CA
:03000000020134C6
:0C013400787FE4F6D8FD75812002017B85
:100140000201C0E493A3F8E493A34003F68001F214
:1001500008DFF48029E493A3F85407240CC8C333C0
:10016000C4540F4420C8834004F456800146F6DF8F
:10017000E4800B0102040810204080900360E47EBC
:10018000019360BCA3FF543F30E509541FFEE49384
:10019000A360010ECF54C025E060A840B8E493A34B
:1001A000FAE493A3F8E493A3C8C582C8CAC583CA76
:1001B000F0A3C8C582C8CAC583CADFE9DEE780BE2E
:010369000093
:00000001FF
