:100A6200582B00582D00592B00592D0030313233AC
:060A720034353637383937
:100A4100012101013C00013D00012C00042242C8AA
:100A51000000042642C80000023E0000022A000AEB
:0B000E00EF1FAC0670011E4C70F622C4
:100A8C00438901758CF2758A54A201928CD2A9D239
:020A9C00AF2287
:100A9E00438910758D3C758BB0A201928ED2ABD26C
:020AAE00AF2275
:1009AF00EF6003752101E5216401703F30900F3036
:1009BF00910C30920930930630940320952D7F8847
:1009CF007E1312000EE4F521209002FF22209103E6
:1009DF007F01222092037F02222093037F03222094
:1009EF0094037F04222095187F05223090123091B6
:1009FF000F30920C30930930940630950375210116
:020A0F007FFF67
:010A110022C2
:10093700AE07ED7005C374039FFEEB7033EE1460D2
:100947000E1460111460172403701CD2A0801AC201
:10095700A0D2A18016C2A0C2A1D2A2C2A322C2A0C5
:10096700C2A1C2A2D2A322C2A0C2A1C2A2C2A32272
:10097700EB64017032EE14600E14601114601724DA
:1009870003701CD2A4801AC2A4D2A58016C2A4C226
:10099700A5D2A6C2A722C2A4C2A5C2A6D2A722C216
:0709A700A4C2A5C2A6C2A76D
:0109AE002226
:0804B2008F0B8E0A8D098C08E6
:1004BA00120289AB07AA067C007D641204198E0C0D
:1004CA008F0D7C007D64AF03AE021204197E007F9B
:1004DA000ACFCDCFCECCCE1204198E0E8F0FAF0B12
:1004EA00AE0AAD09AC081202897C007D0A12041911
:1004FA008C108D11E4FFFE7DC87C42AB0BAA0AA9C1
:10050A0009A808120116120289AB07AA067C007D07
:10051A00641204197E007F0ACFCDCFCECCCE12044E
:10052A00198E128F13AE02AF037C007D0A120419D2
:10053A008C148D1578167C007D007BFF7A0A796E03
:10054A007E007F0A1203DAE52C702B7416250DF84B
:10055A00E6F5307416250FF8E6F53174162511F80C
:10056A00E6F53275332E74162513F8E6F53474164B
:10057A002515F8E6F535E52C6401702B7416250D62
:10058A00F8E6F5367416250FF8E6F53774162511D0
:10059A00F8E6F53875392E74162513F8E6F53A7427
:0705AA00162515F8E6F53BEC
:0105B1002227
:1006B100C2B2C2B3120A78D201120A9E7F01120994
:1006C100AF752E008F2FE52FF47003E52EF460EC4B
:1006D100E4FFFEFDFCAB25AA24A923A82212021CDB
:1006E10040DAE4FFFE7D487C43AB25AA24A923A878
:1006F1002212021C600250C4E4FFFEFDFCAB29AAD9
:1007010028A927A82612021C40B2E4FFFE7D487CDE
:1007110043AB29AA28A927A82612021C6002509CD3
:10072100E52F452E700DD2B2D2B3752D01D2B0C2D4
:10073100B18089E52F6401452E700DD2B2D2B3F597
:100741002DC2B0D2B10206BDE52F6402452E70075D
:10075100F52A752B01801CE52F6403452E7007F5E2
:100761002A752B0A800DE52F6404452E700DF52A9C
:10077100752B64D201120A8C0206BDE52F64054572
:100781002E60030206BDE52C70047F0180027F000C
:050791008F2C0206BDE3
:03000B000205B239
:1005B200C0E0C0F0C083C082C0D075D000C000C00F
:1005C20001C002C003C004C005C006C007758CF29A
:1005D200758A54E52C704F533C03AF3C053CFBAD90
:1005E2002D120937E52D701BAF25AE24AD23AC22A9
:1005F2007B667A667986783F1200258F258E248D58
:10060200238C22E52D64017070AF25AE24AD23AC9E
:10061200227B667A667986783F1200218F258E24A6
:100622008D238C228053E52C6401704D533D03AF22
:100632003D053D7B01AD2D120937E52D701BAF291C
:10064200AE28AD27AC267B667A667986783F1200A3
:10065200258F298E288D278C26E52DB4011BAF29E5
:10066200AE28AD27AC267B667A667986783F120083
:10067200218F298E288D278C26053FE53F700205A4
:100682003EB52B10E53EB52A0BC201120A8C753E0F
:1006920000753F00D007D006D005D004D003D002A9
:0F06A200D001D000D0D0D082D083D0F0D0E032C1
:03001B0002079643
:10079600C0E0C0F0C083C082C0D075D000C000C029
:1007A60001C002C003C004C005C006C007758D3C69
:1007B600758BB0E52C701AE52D70087BFF7A0A79E7
:1007C60062802CE52D6401702B7BFF7A0A796580A7
:1007D6001EE52C6401701DE52D70087BFF7A0A79F1
:1007E60068800CE52DB4010C7BFF7A0A796BE4FD79
:1007F600FF1208B9AF25AE24AD23AC221204B27B9A
:10080600007A0079307D01E4FF1208B9D007D006DE
:10081600D005D004D003D002D001D000D0D0D082F1
:07082600D083D0F0D0E032D6
:100A1200C2B58F807F017E00120A23D2B57F017E8C
:010A220000D3
:100A2300D3EF9400EE940040147D6E7C00ED1D70B6
:0D0A3300011CED4C70F7EF1F70E61E80E314
:010A40002293
:08000300C2B4120A12C2B522B8
:080AB000D2B4120A12C2B522F1
:100A78007F381200037F0C1200037F061200037FE9
:040A88000102000364
:050AB8007F01020003B4
:0208B9008F08A6
:1008BB00E4F509EDD394015072E508940F506CEDFB
:1008CB00C3940150331204006061C374109508FF88
:1008DB00E509C39FE50950062480250880042508F7
:1008EB0024B0FF120003120400FF120AB074012996
:1008FB00F9E43AFA050980CD120400602EC3741096
:10090B009508FFE509C39FE509500624C02508801B
:10091B000425082470FF120003120400FF120AB012
:0B092B00740129F9E43AFA050980CDB7
:01093600229E
:10001E000202F5E86480F8E933E83360110460F019
:10002E00ED33EC337009E8FCE9FDEAFEEBFF220448
:10003E0060DED3EB9FEA9EE99DE8C2E78CF0C2F743
:10004E0095F0400CE8CCF8E9CDF9EACEFAEBCFFB0F
:10005E001202C085D0F05804700320D5B3E80470A6
:10006E00075002B2D50202FF92D5EC0460F7E4CC41
:10007E00C0E0C398F8603B94186008400DD0E0FBD8
:10008E000202D7E4FBFAC9FC8028E830E406E4C992
:10009E00FBE4CAFCE830E305E4C9CACBFCE854072C
:1000AE006010F8C3E913F9EA13FAEB13FBEC13FC37
:1000BE00D8F130F52FC3E49CFCEF9BFFEE9AFEEDDA
:1000CE0099FDD0E0FBEF4E4D4C701222DB03020285
:1000DE00FCEC2CFCEF33FFEE33FEED33FDED30E7A1
:1000EE00EB0202D7EF2BFFEE3AFEED39FDD0E0FB2F
:1000FE0050130BBB00030202FFED13FDEE13FEEFD8
:08010E0013FFEC13FC0202D701
:10011600EC4D6011E8497017ED33EC3304600DE4E3
:10012600FCFFFEFD22E933E8330470F80202F51203
:1001360002C058046009E4CC248150062850090204
:1001460002FF2840030202FCC0E0EB4A7044B9807B
:1001560006D0E0FB0202EBEF4E701CBD8008EBFF01
:10016600EAFEE9FD80EBE98DF0A4FEE5F00201FF71
:10017600E9CDF9EAFEEBFFEF89F0A4FCE5F0CE89C4
:10018600F0A42EFFE435F0CD89F0A42DFEE435F081
:100196008067EF4E7005BD80D780C3EF8BF0A4ACAF
:1001A600F0EE8BF0A42CFCE435F0F8EF8AF0A42CEA
:1001B600E5F038FCE433CB8DF0A42CFCE5F03BF8FD
:1001C600EE8AF0A42CFCE5F038F8E433CF89F0A4ED
:1001D6002CFCE5F038CF3400CE89F0A42FFFE5F0F3
:1001E6003EFEE433C98DF0A42EFEE5F039CD8AF04B
:1001F600A42FFFE5F03EFEE43DFD33D0E0FB5007C3
:100206000BBB000F0202FFEC2CFCEF33FFEE33FEBC
:06021600ED33FD0202D7EA
:10021C0074F8CC6480CCC86480C8F582046043C395
:10022C00EB9FF5F0EA9E42F0E99D42F0E89C45F028
:10023C0060305018E5825FFFE582F42B5582FB504D
:10024C00210ABA001D09B90019088016E5825BFB6A
:10025C00E582F42F5582FF50090EBE00050DBD003E
:10026C00010CC3EB9FF5F0EA9E42F0E99D42F0E8E9
:0D027C009C45F06007CC4820E701B3EC2260
:10028900EDD2E7CD33EC3392D524814006E4FFFE6D
:10029900FDFC22FCE4CFCECDCC24E0501174FF80CC
:1002A900EDC3CC13CCCD13CDCE13CECF13CF047069
:0702B900F030D5DE02044F16
:1002C000E9D2E7C933E833F892D5EDD2E7CD33EC84
:0702D00033FC5002B2D522FD
:1002D700EC30E7100FBF000C0EBE00080DBD000488
:1002E7000BEB6014A2D5EB13FCED92E7FD2274FF34
:1002F700FCFDFEFF22E480F8A2D574FF13FC7D808D
:03030700E480EFA0
:0300000002082DC6
:0C082D00787FE4F6D8FD75813F02087466
:10030A00E709F608DFFA8046E709F208DFFA803ED5
:10031A0088828C83E709F0A3DFFA8032E309F608C2
:10032A00DFFA8078E309F208DFFA807088828C832A
:10033A00E309F0A3DFFA806489828A83E0A3F608DE
:10034A00DFFA805889828A83E0A3F208DFFA804CB8
:10035A0080D280FA80C680D4806980F2803380108F
:10036A0080A680EA809A80A880DA80E280CA8033F8
:10037A0089828A83ECFAE493A3C8C582C8CCC58370
:10038A00CCF0A3C8C582C8CCC583CCDFE9DEE78040
:10039A000D89828A83E493A3F608DFF9ECFAA9F0BF
:1003AA00EDFB2289828A83ECFAE0A3C8C582C8CC15
:1003BA00C583CCF0A3C8C582C8CCC583CCDFEADE2E
:1003CA00E880DB89828A83E493A3F208DFF980CC90
:1003DA0088F0EF60010E4E60C388F0ED2402B40489
:1003EA000050B9F582EB2402B4040050AF23234530
:0603FA00822390035A73F8
:10040000BB010689828A83E0225002E722BBFE02FA
:09041000E32289828A83E493222D
:10041900C2D5EC30E709B2D5E4C39DFDE49CFCEEFE
:1004290030E715B2D5E4C39FFFE49EFE12045DC315
:10043900E49DFDE49CFC800312045D30D507C3E410
:060449009FFFE49EFE226D
:0E044F00C3E49FFFE49EFEE49DFDE49CFC22BE
:100839000206B1E493A3F8E493A34003F68001F21E
:1008490008DFF48029E493A3F85407240CC8C333C0
:10085900C4540F4420C8834004F456800146F6DF8F
:10086900E4800B0102040810204080900A41E47ED4
:10087900019360BCA3FF543F30E509541FFEE49384
:10088900A360010ECF54C025E060A840B8E493A34B
:10089900FAE493A3F8E493A3C8C582C8CAC583CA76
:1008A900F0A3C8C582C8CAC583CADFE9DEE780BE2E
:010A61000094
:10045D00BC000BBE0029EF8DF084FFADF022E4CC83
:10046D00F875F008EF2FFFEE33FEEC33FCEE9DEC4C
:10047D00984005FCEE9DFE0FD5F0E9E4CEFD22ED92
:10048D00F8F5F0EE8420D21CFEADF075F008EF2FDC
:10049D00FFED33FD4007985006D5F0F222C398FDCD
:0504AD000FD5F0EA226A
:00000001FF
