:0501EE00C180010801C1
:0B01E300EF1FAC0670011E4C70F622EE
:1001C500D3EF9400EE940040147D6E7C00ED1D701D
:0D01D500011CED4C70F7EF1F70E61E80E37B
:0101E20022FA
:10010300AE07ED7005C374079FFEEEB408005052AE
:1001130090011AF828287302013202013602013ACB
:1001230002014002014602014F02015802015CD262
:10013300A48031D2A48002C2A4D2A58029C2A4D2B1
:10014300A58004C2A4C2A5D2A6C2A722C2A4C2A5E6
:10015300D2A6D2A722C2A48002D2A4C2A5C2A6D28A
:0A016300A722C2A4C2A5C2A6C2A72B
:01016D00226F
:10016E00EF6003750801E5086401703630900C30BD
:10017E0091093092063093032094277FE87E031274
:10018E0001E3E4F508209002FF222091037F012273
:10019E002092037F02222093037F03222094157F57
:1001AE00042230900F30910C309209309306309427
:0601BE00037508017FFF3C
:0101C4002218
:10008F00E4FBFA7901F509C2B0D2B1FDAF09120153
:10009F0003E4FF12016EAB07EBF46032EB7007FA6B
:1000AF00C2B0D2B18028BB01087A01D2B0C2B180F0
:1000BF001DBB0209E9D394014014198011BB030938
:1000CF00E9C394055008098005BB0402B200300053
:1000DF001AAF090509AD02120103E509B40803E4DB
:1000EF00F509E9FF7E001201C580A6AD027FFF1260
:0400FF000103809DDC
:03000000020003F8
:0C000300787FE4F6D8FD75812002004AE9
:10000F0002008FE493A3F8E493A34003F68001F278
:10001F0008DFF48029E493A3F85407240CC8C333F2
:10002F00C4540F4420C8834004F456800146F6DFC1
:10003F00E4800B01020408102040809001EEE47E62
:10004F00019360BCA3FF543F30E509541FFEE493B6
:10005F00A360010ECF54C025E060A840B8E493A37D
:10006F00FAE493A3F8E493A3C8C582C8CAC583CAA8
:10007F00F0A3C8C582C8CAC583CADFE9DEE780BE60
:0101F300000B
:00000001FF
