:1000FD0011083F065B4F666D7D077F6F777C395E1C
:10010D007971001119C0F9A4B0999282F880908884
:06011D0083C6A1868EFFDF
:0B013A00EF1FAC0670011E4C70F62297
:10012400E4FD74082DF8E6F5807F507EC312013A91
:060134000DBD11EE80EA92
:10008F00E4FDC374079DB40800504D9000A1F828FB
:10009F0028730200B90200BD0200C10200C50200B0
:1000AF00C90200D10200D90200E1D292800ED29291
:1000BF008012D2928016D292801AC292D291D2908E
:1000CF008016C292D291C290800EC292C291D290EB
:1000DF008006C292C291C29074082DF8E6F5807F17
:0E00EF00C87E0012013A0DED640870968092F2
:0301450002008F26
:03000000020003F8
:0C000300787FE4F6D8FD75812902004AE0
:10000F00020145E493A3F8E493A34003F68001F2C1
:10001F0008DFF48029E493A3F85407240CC8C333F2
:10002F00C4540F4420C8834004F456800146F6DFC1
:10003F00E4800B01020408102040809000FDE47E54
:10004F00019360BCA3FF543F30E509541FFEE493B6
:10005F00A360010ECF54C025E060A840B8E493A37D
:10006F00FAE493A3F8E493A3C8C582C8CAC583CAA8
:10007F00F0A3C8C582C8CAC583CADFE9DEE780BE60
:0101230000DB
:00000001FF
