:1000F20011083F065B4F666D7D077F6F777C395E27
:100102007971001119C0F9A4B0999282F88090888F
:0601120083C6A1868EFFEA
:0B012B00EF1FAC0670011E4C70F622A6
:0C00C800540F2419F8E6F5A07FE87E0331
:1000D400D3EF9400EE940040147D6E7C00ED1D700F
:0D00E400011CED4C70F7EF1F70E61E80E36D
:0100F10022EC
:10008F00E4FDFBD2B6D29675804FC2967F01FE1269
:10009F00012BD2967F017E0012012BC2B67F017E0B
:1000AF000012012BD2B6A297E4334205ED25E0FDF5
:0800BF000BBB08E7AD80AF05A3
:0100C7002216
:1001190012008FAB07EB54F0C41200C8EB1200C8F1
:0201290080F361
:03013600020119AA
:03000000020003F8
:0C000300787FE4F6D8FD75812902004AE0
:10000F00020136E493A3F8E493A34003F68001F2D0
:10001F0008DFF48029E493A3F85407240CC8C333F2
:10002F00C4540F4420C8834004F456800146F6DFC1
:10003F00E4800B01020408102040809000F2E47E5F
:10004F00019360BCA3FF543F30E509541FFEE493B6
:10005F00A360010ECF54C025E060A840B8E493A37D
:10006F00FAE493A3F8E493A3C8C582C8CAC583CAA8
:10007F00F0A3C8C582C8CAC583CADFE9DEE780BE60
:0101180000E6
:00000001FF
