:1003380011133F065B4F666D7D077F6F777C395ED3
:06034800797100010A01B9
:0B035F00EF1FAC0670011E4C70F62270
:10034F00438901758CFC758A18D2A9D2AFD28C2241
:10018E00C3950AFBE49400FA7C007D0AAF03FE12CD
:10019E0002B274132FF8E6F5117C007D0AAF03AEA0
:0B01AE00021202B274132DF8E6F512E5
:1001B900E4FDEDB40800504D9001C8F828287302F9
:1001C90001E00201E40201EC0201F00201F802017E
:1001D900FC020204020208C2A28002D2A2C2A3C285
:1001E900A48022C2A28002D2A2D2A3C2A48016C233
:1001F900A28002D2A2C2A3D2A4800AC2A28002D241
:10020900A2D2A3D2A4740B2DF8E6F5807F647E00F8
:0C02190012035FE4F5800DED64087096A0
:0102250022B6
:10000E0012034FE50AD39407504AE4F50BF50CC3DF
:10001E00740B950AFBE49400FA7C007D0AAF03FE94
:10002E001202B274132FF8E6F50D7C007D0AAF03B1
:10003E00AE021202B274132DF8E6F50EE4F50FF5CA
:10004E0010740812018EC292D293D294D295D29687
:10005E00C2978056E50AD3940A505BE4F50BF50C73
:10006E00C3740B950AFFE49400FE7C007D0A120215
:10007E00B274132FF8E6FBF50DC3740B950AFFE46B
:10008E009400FE7C007D0A1202B274132DF8E6FF76
:10009E00F50EE4F50FF5108B118F121201B9C29205
:1000AE00D293D294D295C296D297C290A290B39286
:1000BE0091D2B102011CE50AD394115059E4F50B0B
:1000CE00F50CC37412950AFBE49400FA7C007D0AC9
:1000DE00AF03FE1202B274132FF8E6F50D7C007D0D
:1000EE000AAF03AE021202B274132DF8E6F50EE457
:1000FE00F50FF510741512018ED292D293C294C2DE
:10010E0095D296D297D290A290B39291C2B1A2B14B
:10011E00B392B0020011E50AD39414400302001109
:10012E00E4F50BF50CC37415950AFFE49400FE7C00
:10013E00007D0A1202B274132FF8E6FBF50DC3749C
:10014E0015950AFFE49400FE7C007D0A1202B2743B
:10015E00132DF8E6FFF50EE4F50FF5108B118F1247
:10016E001201B9D292C293D294C295D296D297D29C
:10017E0090A290B39291C2B1A2B1B392B00200110B
:03000B00020307E6
:04030700C0E0C0D0C2
:10030B00758CFC758A180509E50970020508B4E8B7
:10031B0017E508B40312750800750900050AE50A0C
:08032B00D394144003750A018C
:05033300D0D0D0E03243
:03000000020226D3
:0C022600787FE4F6D8FD75812302026D9C
:1002B200BC000BBE0029EF8DF084FFADF022E4CC30
:1002C200F875F008EF2FFFEE33FEEC33FCEE9DECF9
:1002D200984005FCEE9DFE0FD5F0E9E4CEFD22ED3F
:1002E200F8F5F0EE8420D21CFEADF075F008EF2F89
:1002F200FFED33FD4007985006D5F0F222C398FD7A
:050302000FD5F0EA2216
:1002320002000EE493A3F8E493A34003F68001F2D4
:1002420008DFF48029E493A3F85407240CC8C333CD
:10025200C4540F4420C8834004F456800146F6DF9C
:10026200E4800B0102040810204080900338E47EF1
:10027200019360BCA3FF543F30E509541FFEE49391
:10028200A360010ECF54C025E060A840B8E493A358
:10029200FAE493A3F8E493A3C8C582C8CAC583CA83
:1002A200F0A3C8C582C8CAC583CADFE9DEE780BE3B
:01034E0000AE
:00000001FF
