:06000300010902010827BB
:10009A00804030900C3091093092063093032094BE
:1000AA00F17F647E0012013F209008E4F50975088B
:1000BA0027801F209108750901750827801420924E
:1000CA0008750902750827800920930D75090375BB
:1000DA000827D20012011E80B92094B6750904754A
:0900EA000827D20012011E80A9B2
:03000B000200F3FD
:1000F300C0E0C0F0C0D0758CFE758A0C0508E50819
:1001030075F0288485F008E508D395095004D2A03A
:0B0113008002C2A0D0D0D0F0D0E032BB
:0B013F00EF1FAC0670011E4C70F62292
:07014A00C288D2A8D2AF2247
:07015100C28AD2AAD2AF223C
:10011E00438901758CFF758A9CA200928CD2A9D25C
:02012E00AF22FE
:0F013000438910E4F58DF58BD28ED2ABD2AF227E
:0300000002000EED
:0C000E00787FE4F6D8FD758120020055D3
:10001A0002009AE493A3F8E493A34003F68001F262
:10002A0008DFF48029E493A3F85407240CC8C333E7
:10003A00C4540F4420C8834004F456800146F6DFB6
:10004A00E4800B0102040810204080900003E47E43
:10005A00019360BCA3FF543F30E509541FFEE493AB
:10006A00A360010ECF54C025E060A840B8E493A372
:10007A00FAE493A3F8E493A3C8C582C8CAC583CA9D
:10008A00F0A3C8C582C8CAC583CADFE9DEE780BE55
:0100090000F6
:00000001FF
