:0C000E00010800010B00010900010A00BC
:10014200D200120178D20012018AE4F508750B146C
:10015200AF0B150BEF60097F107E2712019C80F018
:10016200750801750B14AF0B150BEF60DD7F107E68
:060172002712019C80F041
:03000B000200AA46
:1000AA00C0E0C0D075D000C007E5087014E509703B
:1000BA0008758CFE758A33801A758CB9758ACC805E
:1000CA0012E5097008758CF8758A398006758CBF37
:1000DA00758AC6E50970047F0180027F008F09E5F1
:0C00EA000924FF92A0D007D0D0D0E03253
:03001B000200F6EA
:1000F600C0E0C0D075D000C007E5087014E50A70EE
:1001060008758DF8758B39801A758DBF758BC6800D
:1001160012E50A7008758DFE758B338006758DB9EC
:10012600758BCCE50A70047F0180027F008F0AE59B
:0C0136000A24FF92A1D007D0D0D0E03204
:0B019C00EF1FAC0670011E4C70F62235
:07000300C288D2A8D2AF228F
:0701A700C28AD2AAD2AF22E6
:10017800438901758CFFE4F58AA200928CD2A9D23A
:02018800AF22A4
:10018A00438910758DFFE4F58BA200928ED2ABD213
:02019A00AF2292
:0300000002001EDD
:0C001E00787FE4F6D8FD758120020065B3
:10002A00020142E493A3F8E493A34003F68001F2A9
:10003A0008DFF48029E493A3F85407240CC8C333D7
:10004A00C4540F4420C8834004F456800146F6DFA6
:10005A00E4800B010204081020408090000EE47E28
:10006A00019360BCA3FF543F30E509541FFEE4939B
:10007A00A360010ECF54C025E060A840B8E493A362
:10008A00FAE493A3F8E493A3C8C582C8CAC583CA8D
:10009A00F0A3C8C582C8CAC583CADFE9DEE780BE45
:01001A0000E5
:00000001FF
